:100000000C942A001895000018950000189500001F
:10001000189500001895000018950000189500002C
:10002000189500001895000018950000189500001C
:10003000189500001895000018950000189500000C
:1000400018950000189500001895000018950000FC
:10005000189500008FE58DBFC8E3E0E24E2E88E0E2
:100060008EBFD8E0F8E05F2EA89584B7082E877F72
:1000700084BF88E1992781BD91BDEEEFF7E0A0E64E
:10008000B0E088278D933197E9F70E940603662434
:100090008CE00E9454030E94EB0283E886B980E45E
:1000A00087B9379ABE98C69ABF98C79ABD98C59A1D
:1000B000BC98C49AA69AAE98A79AAF988CE291E0A1
:1000C000A2E8B0E08D939C930E94DD000E94960010
:1000D000B6990C946F000E94EC000E94CC00B79976
:1000E0000C9476000E9425010E94CC00B5990C94D6
:1000F0007D000E945E010E94CC00B4990C948400A3
:100100000E9497010E94CC000E94D0010E94A4028C
:100110000E946C020E94FF01A2E8B0E08D919C91C8
:100120000E9481030C946800F894FFCF0E94EB02B8
:100130008FE711E00E94FA02EEE4FDE00E94E40283
:100140008FEB11E00E94FA02EAE5FDE00E94E40272
:10015000E2E0F0E00E94FD020E94EB020895AAE6B0
:10016000B0E0EEE2FDE00E948404A6E7B0E0E2E346
:10017000FDE00E948404E0E0F0E0AAE6B0E094E054
:100180007BE70E94F504E4E0F0E0A6E7B0E094E04D
:100190007BE70E94F5040895E0E0F0E0AAE6B0E015
:1001A00094E07BE70E94F504E4E0F0E0A6E7B0E02D
:1001B00094E07BE70E94F5040895AAE6B0E0E0E051
:1001C000F0E094E00E940605A6E7B0E0E4E0F0E08D
:1001D00094E00E9406050895E6E3FDE00E948A0689
:1001E000EAE6F0E00E9434050E943C06EDE0F0E013
:1001F000AAE6B0E00E94E604EAE6F0E00E943405D8
:10020000EAE3FDE00E948A060E941B0581E008F0F7
:1002100080E08F93EAE6F0E00E943405EEE3FDE033
:100220000E948A060E941B0580E010F009F081E020
:100230009F91892B882311F40C942401AAE6B0E045
:10024000EAE3FDE00E9484040895E6E3FDE00E94F5
:100250008A06EAE6F0E00E9434050E942D06EDE0F1
:10026000F0E0AAE6B0E00E94E604EAE6F0E00E94D0
:100270003405EAE3FDE00E948A060E941B0581E046
:1002800008F080E08F93EAE6F0E00E943405EEE3A8
:10029000FDE00E948A060E941B0580E010F009F034
:1002A00081E09F91892B882311F40C945D01AAE6CB
:1002B000B0E0EEE3FDE00E9484040895E6E3FDE093
:1002C0000E948A06E6E7F0E00E9434050E943C06A0
:1002D000EDE0F0E0A6E7B0E00E94E604E6E7F0E03B
:1002E0000E943405EAE3FDE00E948A060E941B0595
:1002F00081E008F080E08F93E6E7F0E00E943405AB
:10030000EEE3FDE00E948A060E941B0580E010F0EB
:1003100009F081E09F91892B882311F40C949601B8
:10032000A6E7B0E0EAE3FDE00E9484040895E6E376
:10033000FDE00E948A06E6E7F0E00E9434050E9494
:100340002D06EDE0F0E0A6E7B0E00E94E604E6E767
:10035000F0E00E943405EAE3FDE00E948A060E9474
:100360001B0581E008F080E08F93E6E7F0E00E9453
:100370003405EEE3FDE00E948A060E941B0580E042
:1003800010F009F081E09F91892B882311F40C94DF
:10039000CF01A6E7B0E0EEE3FDE00E9484040895FB
:1003A00007B1007E076007B90E947304A0E6B0E0C1
:1003B0008D939C93E2E4FDE00E948A06E0E6F0E083
:1003C000D190E080FF2400270E9468050E94EE057E
:1003D000EDE0F0E0A6E6B0E00E94E604E6E4FDE031
:1003E0000E948A06E6E6F0E00E9434050E94950528
:1003F000EDE0F0E0A2E6B0E00E94E60408958FE7A9
:1004000011E00E94FA02ECE6FDE00E94E4028FEBAC
:1004100011E00E94FA02A8E0B8E0AF93BF93E6E7CC
:10042000F0E00E9434050E94900311E001E0BF91CA
:10043000AF910E949904E8E0F8E0A8E0B8E00E94DB
:10044000E1040E94DC028FEB15E00E94FA02EEE765
:10045000FDE00E94E4028FEB16E00E94FA02A8E0A1
:10046000B8E0AF93BF93E2E6F0E00E9434050E944B
:10047000900311E001E0BF91AF910E949904E8E080
:10048000F8E0A8E0B8E00E94E1040E94DC028FEBF3
:100490001AE00E94FA02EEE7FDE00E94E4028FEB10
:1004A0001BE00E94FA02A8E0B8E0AF93BF93EAE62F
:1004B000F0E00E9434050E94900311E001E0BF913A
:1004C000AF910E949904E8E0F8E0A8E0B8E00E944B
:1004D000E1040E94DC020895EAE6F0E0AEE6B0E056
:1004E0000E94E604EAE4FDE00E948A06EAE6F0E003
:1004F0000E9434050E942D06EDE0F0E0A2E7B0E096
:100500000E94E604E2E6F0E00E943405EEE6F0E048
:100510000E9439050E941B0518F011F00C949202FC
:100520000C949502AF9A0C94A302E2E6F0E00E94CC
:100530003405E2E7F0E00E9439050E941B0510F047
:100540000C94A302AF980895EAE4FDE00E948A06A5
:10055000E6E7F0E00E9434050E943C06EDE0F0E0A2
:10056000AAE7B0E00E94E604E6E7F0E0AEE7B0E01C
:100570000E94E604E2E6F0E00E943405EEE7F0E0D7
:100580000E9439050E941B0510F00C94CA02AE9A15
:100590000C94DB02E2E6F0E00E943405EAE7F0E0CA
:1005A0000E9439050E941B0518F011F00C94DA0224
:1005B0000C94DB02AE980895A8E0B8E08D918823F2
:1005C00011F06CD0FBCF08950E947C04802D11F0B7
:1005D00065D0FACF089581E067D015D080E864C077
:1005E0008FE7213039F08FEB223021F08FE8233074
:1005F00009F08FEC810F0C94540388EE93E081D0C6
:100600003197D9F7089583E099277BC08AEF90E06E
:100610000E9481038F9A8E9A8D9A8C9A8A9A889AD0
:10062000909885E090E00E94810392989798969820
:10063000959A949A929AEF93FF93E5E1F0E00E94E5
:100640007503FF91EF91929859D0929AEF93FF938F
:10065000E5E1F0E00E947503FF91EF9192984ED092
:10066000929AEF93FF93E5E1F0E00E947503FF910A
:10067000EF91929843D09498929AEF93FF93E5E18B
:10068000F0E00E947503FF91EF91929837D088E2D5
:100690000BD08EE009D086E007D00895909A82951D
:1006A00005D004D02BD008959098F9CF859510F4FB
:1006B000949A01C09498859510F4959A01C09598E4
:1006C000859510F4969A01C09698859510F4979A9E
:1006D00001C09798929AEF93FF93E5E1F0E00E94B2
:1006E0007503FF91EF91929808953197F1F708956E
:1006F000689462F80895E89462F8089581E090E0C3
:1007000000C0EF93FF93EE27E82BE92B31F0EAEFDF
:10071000F0E03197F1F70197D1F7FF91EF9108954C
:100720008DE207FD8D938F2D881F802F881F8F5797
:10073000082F6894F7F8802F87FF15C08095839560
:10074000082F80E38D938EE28D93802F815228F0C5
:1007500080E38D9399279C93089544270A95802FD1
:1007600009F196D01FC0805230F09EE49D9381E441
:100770008D939D93EFCF4427DF92EF92FF920F93DB
:100780008FE1801B11F0082F83D089D09EE29D93CA
:100790000F91FF90EF90DF9044270395003209F40A
:1007A000D7CF2BD03F93E0E3F8E038E12F2D1E2D7B
:1007B0000D2DFF24EE24DD244427000F111F221FDE
:1007C000A8F42F923F920E947C04102C0E947C047B
:1007D000202C0E947C04302C0E947C043197410D17
:1007E000D21CE31CF01C3F902F9001C03396319631
:1007F0003A9519F73F9107D0AFCFDD0CEE1CFF1CE7
:100800000A95D9F70895002719E058D08F93802BC7
:1008100011F0039501C08F911A95B9F7802F8823A5
:1008200009F496CF8F91805D8D930A95D9F792CF79
:100830000065CD1D80B2E60E40597307A0ACB90328
:1008400050D6DC01286BEE0094357700CA9A3B0045
:1008500065CD1D00B2E60E0059730700ACB9030068
:10086000D6DC01006BEE0000357700009A3B0000FB
:10087000CD1D0000E60E000073070000B903000064
:10088000DC010000EE000000770000003B000000EB
:10089000F694E794D79447950A95D1F708950027E1
:1008A0000DD08F9303958F2D8E298D29842BC1F721
:1008B0008F91805D8D930A95D9F74CCF1F930F933D
:1008C000002710E2440FDD1CEE1CFF1C001F802FD0
:1008D0009AE0890B10F0082F43951A9599F7802F0D
:1008E0000F911F910895369A3699FECF369A369910
:1008F000FECF84B195B10895C89531960020089532
:1009000091E005C092E003C094E001C098E0F4DFFC
:100910000D929A95E1F7089599278D9193958823E3
:10092000E1F7939511968C9311978E919A95D1F743
:100930000895EA2FFB2F00244C918D9103948E3261
:10094000E1F711248D9113948823E1F71A9410167E
:1009500040F41197202F2119239580E38D932A9538
:10096000E9F7113039F59927AE2FBF2FA00DB91F28
:10097000A00FB91F8C919C93853308F421C031E0FE
:100980008E918E32E9F38D3241F0830F8A3319F460
:1009900080E331E001C033278C93AE1789F733230E
:1009A00041F0AE2FBF2FB8DF81E34D3209F431960D
:1009B000808308958827E00DF81FE00FF81F8083DB
:1009C000089581918D938823E1F7089594E08191B2
:1009D0008D939A95E1F70895E199FECFEEBBFFBBA9
:1009E0003196089591E001C092E07B3751F47FB7D2
:1009F000F894F2DF8D918DBBE29AE19A9A95C9F74E
:100A00007FBF7727089591E001C092E0E5DFE09A8B
:100A10008DB38D939A95D1F70895B7FE089590E818
:100A2000B91611F4D0FE08959FEFD91AE90AF90A10
:100A300009F4039508950F928F939F93D216E306BE
:100A4000F4060FB680E890E8802795270FBE890747
:100A500039F00FB6892B87FD02C081E008260FBE52
:100A60009F918F910F900895D190E190F190019115
:100A7000089521913191419151910895502F2D2D3B
:100A80003E2D4F2D612F0895D094E094F09491E085
:100A9000D90E9927E91EF91E10950895652F90E843
:100AA000440F551F5927990F47956078102F90E8EC
:100AB000FF0C001F0927990FF7941078003808954C
:100AC000FF0C90E89027110F9795F794092F089540
:100AD0001127BD2CDE2CEF2CF02E0EE1FF2039F477
:100AE000FE2CED2CDB2CBB240850C2F752C032F098
:100AF0000A95BB0CDD1CEE1CFF1CF9CF8EDFE0CF8E
:100B00002DEC3CEC4CEC5DE366270FC0ADDFB6DFAF
:100B1000DD24EE2490E8F92E0FE307C0AADF05C01C
:100B20002227332740E251E46627552351F1002361
:100B300081F1B4DF71F11627005850580894050B65
:100B400018F407FD03C025C007FD23C0469537955F
:100B50002795F694E794D79425D0FF202AF0DD0C52
:100B6000EE1CFF1C015073F09D2D969548F0DD2082
:100B70003AF4EE202AF491E0D90E9927E91EF91EE5
:100B80009FCF07C09FE7092FF92A9FEFD92EE92EA3
:100B90000895DD24EE24FF240027112708950FE790
:100BA0009FEFF2CF9F929924AA24BB2488E1D2160A
:100BB000E306F40628F0D21AE30AF40A089401C006
:100BC0008894991CAA1CBB1CDD0CEE1CFF1C8A958A
:100BD00071F7D92CEA2CFB2C9F9008955FDFD9F098
:100BE0005038C9F016270058952F90580894091FBF
:100BF00012F418F40EC008F00EC00FD0FF202AF037
:100C0000BB0CDD1CEE1CFF1C02C0039513F005DFBE
:100C100057CF0C94C2050C94C9059F92FF92EF9296
:100C20008D2DFF24EE24DD24BB2493E0849F10014E
:100C3000829FB00CD11CE21CF31C839FD00CE11CE2
:100C40002224F21C9A9531F0BD2CDE2CEF2CFF24CF
:100C50008F91ECCF9F9008950CDF20DF503829F062
:100C600090E869270CC00AF045D02ACF5FE322271D
:100C70003327442701C0FDDE11DF5038B1F30038BF
:100C800099F3902F951B8BF312F434D0FACF98314F
:100C900018F0222733274427983028F0232F342FA9
:100CA00044279850F9CF992329F0469537952795F1
:100CB0009A95D9F7912F962742F014D0B0F6F79471
:100CC000E794D7940F5F8BF65DCF10D051F008F406
:100CD000DBDEFF2052F2DD0CEE1CFF1C0150CBF7D7
:100CE00051CF57CFD20EE31EF41E0895D21AE30A55
:100CF000F40A0895DF92EF92FF920F931F93D22E82
:100D0000E32EF42E052F162F6F915F914F913F9197
:100D10002F9108950E947C04202D0E947C04302D88
:100D20000E947C04402D0E947C04502D08950000F8
:100D3000F0410000A0410000003F00000000000062
:100D4000C64200409C40000020410000803F5468A3
:100D500065726D6F7374617400002D2D2D2D2D2D16
:100D60002D2D2D2D2D2D2D2D2D2D2D0054656D70FE
:100D700020436F6E74726F6C65723A2000003C0005
:00000001FF
